{
  "_format": "hh-sol-artifact-1",
  "contractName": "Aryan",
  "sourceName": "contracts/Aryan.sol",
  "abi": [
    {
      "anonymous": false,
      "inputs": [
        {
          "indexed": false,
          "internalType": "uint256",
          "name": "startTime",
          "type": "uint256"
        },
        {
          "indexed": false,
          "internalType": "uint256",
          "name": "vestingTime",
          "type": "uint256"
        }
      ],
      "name": "Createholder",
      "type": "event"
    },
    {
      "inputs": [],
      "name": "Supply",
      "outputs": [
        {
          "internalType": "uint256",
          "name": "",
          "type": "uint256"
        }
      ],
      "stateMutability": "view",
      "type": "function"
    },
    {
      "inputs": [
        {
          "internalType": "address",
          "name": "_holderAddress",
          "type": "address"
        },
        {
          "internalType": "string",
          "name": "_post",
          "type": "string"
        },
        {
          "internalType": "uint256",
          "name": "_vestingTime",
          "type": "uint256"
        },
        {
          "internalType": "uint256",
          "name": "_tokenamount",
          "type": "uint256"
        }
      ],
      "name": "addholder",
      "outputs": [],
      "stateMutability": "nonpayable",
      "type": "function"
    },
    {
      "inputs": [
        {
          "internalType": "string",
          "name": "_name",
          "type": "string"
        },
        {
          "internalType": "address",
          "name": "_orgaddr",
          "type": "address"
        },
        {
          "internalType": "uint256",
          "name": "_tokenamount",
          "type": "uint256"
        }
      ],
      "name": "addorg",
      "outputs": [],
      "stateMutability": "nonpayable",
      "type": "function"
    },
    {
      "inputs": [
        {
          "internalType": "address",
          "name": "",
          "type": "address"
        }
      ],
      "name": "balance",
      "outputs": [
        {
          "internalType": "uint256",
          "name": "",
          "type": "uint256"
        }
      ],
      "stateMutability": "view",
      "type": "function"
    },
    {
      "inputs": [],
      "name": "claim",
      "outputs": [],
      "stateMutability": "nonpayable",
      "type": "function"
    },
    {
      "inputs": [],
      "name": "getclaimed",
      "outputs": [
        {
          "internalType": "uint256",
          "name": "",
          "type": "uint256"
        }
      ],
      "stateMutability": "view",
      "type": "function"
    },
    {
      "inputs": [
        {
          "internalType": "address",
          "name": "_address",
          "type": "address"
        }
      ],
      "name": "getholder",
      "outputs": [
        {
          "components": [
            {
              "internalType": "string",
              "name": "holderPost",
              "type": "string"
            },
            {
              "internalType": "uint256",
              "name": "claimed",
              "type": "uint256"
            },
            {
              "internalType": "uint256",
              "name": "tokenamount",
              "type": "uint256"
            },
            {
              "internalType": "uint256",
              "name": "startTime",
              "type": "uint256"
            },
            {
              "internalType": "uint256",
              "name": "vestingTime",
              "type": "uint256"
            }
          ],
          "internalType": "struct Aryan.Holder",
          "name": "",
          "type": "tuple"
        }
      ],
      "stateMutability": "view",
      "type": "function"
    },
    {
      "inputs": [
        {
          "internalType": "address",
          "name": "",
          "type": "address"
        }
      ],
      "name": "holders",
      "outputs": [
        {
          "internalType": "string",
          "name": "holderPost",
          "type": "string"
        },
        {
          "internalType": "uint256",
          "name": "claimed",
          "type": "uint256"
        },
        {
          "internalType": "uint256",
          "name": "tokenamount",
          "type": "uint256"
        },
        {
          "internalType": "uint256",
          "name": "startTime",
          "type": "uint256"
        },
        {
          "internalType": "uint256",
          "name": "vestingTime",
          "type": "uint256"
        }
      ],
      "stateMutability": "view",
      "type": "function"
    },
    {
      "inputs": [
        {
          "internalType": "address",
          "name": "",
          "type": "address"
        }
      ],
      "name": "orgs",
      "outputs": [
        {
          "internalType": "address",
          "name": "orgaddr",
          "type": "address"
        },
        {
          "internalType": "uint256",
          "name": "tokenamount",
          "type": "uint256"
        },
        {
          "internalType": "string",
          "name": "name",
          "type": "string"
        }
      ],
      "stateMutability": "view",
      "type": "function"
    },
    {
      "inputs": [
        {
          "internalType": "address",
          "name": "",
          "type": "address"
        }
      ],
      "name": "whitelistAddr",
      "outputs": [
        {
          "internalType": "bool",
          "name": "",
          "type": "bool"
        }
      ],
      "stateMutability": "view",
      "type": "function"
    },
    {
      "inputs": [
        {
          "internalType": "address",
          "name": "_holder",
          "type": "address"
        }
      ],
      "name": "whitelistAddress",
      "outputs": [],
      "stateMutability": "nonpayable",
      "type": "function"
    }
  ],
  "bytecode": "0x608060405234801561001057600080fd5b506117d2806100206000396000f3fe608060405234801561001057600080fd5b50600436106100a95760003560e01c80634e71d92d116100715780634e71d92d1461017c5780636c9ef4d9146101865780638d97b97a146101a2578063e3d670d7146101c0578063ee07bf22146101f0578063fccba40f1461020e576100a9565b8063080a57f9146100ae57806318a5bbdc146100de5780632a6df5e2146101125780633bf479ff1461012e5780634156658514610160575b600080fd5b6100c860048036038101906100c39190610c3e565b61023e565b6040516100d59190610c86565b60405180910390f35b6100f860048036038101906100f39190610c3e565b61025e565b604051610109959493929190610d4a565b60405180910390f35b61012c60048036038101906101279190610f05565b61031c565b005b61014860048036038101906101439190610c3e565b610531565b60405161015793929190610f97565b60405180910390f35b61017a60048036038101906101759190610c3e565b610603565b005b61018461072e565b005b6101a0600480360381019061019b9190610fd5565b61096a565b005b6101aa610a25565b6040516101b79190611044565b60405180910390f35b6101da60048036038101906101d59190610c3e565b610a6c565b6040516101e79190611044565b60405180910390f35b6101f8610a84565b6040516102059190611044565b60405180910390f35b61022860048036038101906102239190610c3e565b610a8a565b604051610235919061112e565b60405180910390f35b60026020528060005260406000206000915054906101000a900460ff1681565b60046020528060005260406000206000915090508060000180546102819061117f565b80601f01602080910402602001604051908101604052809291908181526020018280546102ad9061117f565b80156102fa5780601f106102cf576101008083540402835291602001916102fa565b820191906000526020600020905b8154815290600101906020018083116102dd57829003601f168201915b5050505050908060010154908060020154908060030154908060040154905085565b3373ffffffffffffffffffffffffffffffffffffffff16600360003373ffffffffffffffffffffffffffffffffffffffff1673ffffffffffffffffffffffffffffffffffffffff16815260200190815260200160002060000160009054906101000a900473ffffffffffffffffffffffffffffffffffffffff1673ffffffffffffffffffffffffffffffffffffffff16146103ec576040517f08c379a00000000000000000000000000000000000000000000000000000000081526004016103e3906111fc565b60405180910390fd5b6000600360003373ffffffffffffffffffffffffffffffffffffffff1673ffffffffffffffffffffffffffffffffffffffff16815260200190815260200160002090508181600101541015610476576040517f08c379a000000000000000000000000000000000000000000000000000000000815260040161046d9061128e565b60405180910390fd5b6000600460008773ffffffffffffffffffffffffffffffffffffffff1673ffffffffffffffffffffffffffffffffffffffff1681526020019081526020016000209050848160000190816104ca919061145a565b50828160020181905550600081600101819055504281600301819055508381600401819055507f44dafefc9ce70eb3584d3172f905002531c7df704670730588071fe31299fb52428560405161052192919061152c565b60405180910390a1505050505050565b60036020528060005260406000206000915090508060000160009054906101000a900473ffffffffffffffffffffffffffffffffffffffff16908060010154908060020180546105809061117f565b80601f01602080910402602001604051908101604052809291908181526020018280546105ac9061117f565b80156105f95780601f106105ce576101008083540402835291602001916105f9565b820191906000526020600020905b8154815290600101906020018083116105dc57829003601f168201915b5050505050905083565b3373ffffffffffffffffffffffffffffffffffffffff16600360003373ffffffffffffffffffffffffffffffffffffffff1673ffffffffffffffffffffffffffffffffffffffff16815260200190815260200160002060000160009054906101000a900473ffffffffffffffffffffffffffffffffffffffff1673ffffffffffffffffffffffffffffffffffffffff16146106d3576040517f08c379a00000000000000000000000000000000000000000000000000000000081526004016106ca906111fc565b60405180910390fd5b6001600260008373ffffffffffffffffffffffffffffffffffffffff1673ffffffffffffffffffffffffffffffffffffffff16815260200190815260200160002060006101000a81548160ff02191690831515021790555050565b600260003373ffffffffffffffffffffffffffffffffffffffff1673ffffffffffffffffffffffffffffffffffffffff16815260200190815260200160002060009054906101000a900460ff166107ba576040517f08c379a00000000000000000000000000000000000000000000000000000000081526004016107b1906115a1565b60405180910390fd5b6000600460003373ffffffffffffffffffffffffffffffffffffffff1673ffffffffffffffffffffffffffffffffffffffff16815260200190815260200160002090506000816003015403610844576040517f08c379a000000000000000000000000000000000000000000000000000000000815260040161083b9061160d565b60405180910390fd5b80600401548160030154610858919061165c565b42101561089a576040517f08c379a0000000000000000000000000000000000000000000000000000000008152600401610891906116dc565b60405180910390fd5b6000816001015482600201546108b091906116fc565b9050600081116108f5576040517f08c379a00000000000000000000000000000000000000000000000000000000081526004016108ec9061177c565b60405180910390fd5b80826001016000828254610909919061165c565b9250508190555080600160003373ffffffffffffffffffffffffffffffffffffffff1673ffffffffffffffffffffffffffffffffffffffff168152602001908152602001600020600082825461095f919061165c565b925050819055505050565b6000600360008473ffffffffffffffffffffffffffffffffffffffff1673ffffffffffffffffffffffffffffffffffffffff1681526020019081526020016000209050838160020190816109be919061145a565b50828160000160006101000a81548173ffffffffffffffffffffffffffffffffffffffff021916908373ffffffffffffffffffffffffffffffffffffffff16021790555081816001018190555081600054610a19919061165c565b60008190555050505050565b6000600160003373ffffffffffffffffffffffffffffffffffffffff1673ffffffffffffffffffffffffffffffffffffffff16815260200190815260200160002054905090565b60016020528060005260406000206000915090505481565b60005481565b610a92610b9d565b600460008373ffffffffffffffffffffffffffffffffffffffff1673ffffffffffffffffffffffffffffffffffffffff1681526020019081526020016000206040518060a0016040529081600082018054610aec9061117f565b80601f0160208091040260200160405190810160405280929190818152602001828054610b189061117f565b8015610b655780601f10610b3a57610100808354040283529160200191610b65565b820191906000526020600020905b815481529060010190602001808311610b4857829003601f168201915b505050505081526020016001820154815260200160028201548152602001600382015481526020016004820154815250509050919050565b6040518060a0016040528060608152602001600081526020016000815260200160008152602001600081525090565b6000604051905090565b600080fd5b600080fd5b600073ffffffffffffffffffffffffffffffffffffffff82169050919050565b6000610c0b82610be0565b9050919050565b610c1b81610c00565b8114610c2657600080fd5b50565b600081359050610c3881610c12565b92915050565b600060208284031215610c5457610c53610bd6565b5b6000610c6284828501610c29565b91505092915050565b60008115159050919050565b610c8081610c6b565b82525050565b6000602082019050610c9b6000830184610c77565b92915050565b600081519050919050565b600082825260208201905092915050565b60005b83811015610cdb578082015181840152602081019050610cc0565b60008484015250505050565b6000601f19601f8301169050919050565b6000610d0382610ca1565b610d0d8185610cac565b9350610d1d818560208601610cbd565b610d2681610ce7565b840191505092915050565b6000819050919050565b610d4481610d31565b82525050565b600060a0820190508181036000830152610d648188610cf8565b9050610d736020830187610d3b565b610d806040830186610d3b565b610d8d6060830185610d3b565b610d9a6080830184610d3b565b9695505050505050565b600080fd5b600080fd5b7f4e487b7100000000000000000000000000000000000000000000000000000000600052604160045260246000fd5b610de682610ce7565b810181811067ffffffffffffffff82111715610e0557610e04610dae565b5b80604052505050565b6000610e18610bcc565b9050610e248282610ddd565b919050565b600067ffffffffffffffff821115610e4457610e43610dae565b5b610e4d82610ce7565b9050602081019050919050565b82818337600083830152505050565b6000610e7c610e7784610e29565b610e0e565b905082815260208101848484011115610e9857610e97610da9565b5b610ea3848285610e5a565b509392505050565b600082601f830112610ec057610ebf610da4565b5b8135610ed0848260208601610e69565b91505092915050565b610ee281610d31565b8114610eed57600080fd5b50565b600081359050610eff81610ed9565b92915050565b60008060008060808587031215610f1f57610f1e610bd6565b5b6000610f2d87828801610c29565b945050602085013567ffffffffffffffff811115610f4e57610f4d610bdb565b5b610f5a87828801610eab565b9350506040610f6b87828801610ef0565b9250506060610f7c87828801610ef0565b91505092959194509250565b610f9181610c00565b82525050565b6000606082019050610fac6000830186610f88565b610fb96020830185610d3b565b8181036040830152610fcb8184610cf8565b9050949350505050565b600080600060608486031215610fee57610fed610bd6565b5b600084013567ffffffffffffffff81111561100c5761100b610bdb565b5b61101886828701610eab565b935050602061102986828701610c29565b925050604061103a86828701610ef0565b9150509250925092565b60006020820190506110596000830184610d3b565b92915050565b600082825260208201905092915050565b600061107b82610ca1565b611085818561105f565b9350611095818560208601610cbd565b61109e81610ce7565b840191505092915050565b6110b281610d31565b82525050565b600060a08301600083015184820360008601526110d58282611070565b91505060208301516110ea60208601826110a9565b5060408301516110fd60408601826110a9565b50606083015161111060608601826110a9565b50608083015161112360808601826110a9565b508091505092915050565b6000602082019050818103600083015261114881846110b8565b905092915050565b7f4e487b7100000000000000000000000000000000000000000000000000000000600052602260045260246000fd5b6000600282049050600182168061119757607f821691505b6020821081036111aa576111a9611150565b5b50919050565b7f4e6f7420617574686f72697a6564000000000000000000000000000000000000600082015250565b60006111e6600e83610cac565b91506111f1826111b0565b602082019050919050565b60006020820190508181036000830152611215816111d9565b9050919050565b7f43616e6e6f742062652067726561746572207468616e2074686520746f74616c60008201527f20746f6b656e0000000000000000000000000000000000000000000000000000602082015250565b6000611278602683610cac565b91506112838261121c565b604082019050919050565b600060208201905081810360008301526112a78161126b565b9050919050565b60008190508160005260206000209050919050565b60006020601f8301049050919050565b600082821b905092915050565b6000600883026113107fffffffffffffffffffffffffffffffffffffffffffffffffffffffffffffffff826112d3565b61131a86836112d3565b95508019841693508086168417925050509392505050565b6000819050919050565b600061135761135261134d84610d31565b611332565b610d31565b9050919050565b6000819050919050565b6113718361133c565b61138561137d8261135e565b8484546112e0565b825550505050565b600090565b61139a61138d565b6113a5818484611368565b505050565b5b818110156113c9576113be600082611392565b6001810190506113ab565b5050565b601f82111561140e576113df816112ae565b6113e8846112c3565b810160208510156113f7578190505b61140b611403856112c3565b8301826113aa565b50505b505050565b600082821c905092915050565b600061143160001984600802611413565b1980831691505092915050565b600061144a8383611420565b9150826002028217905092915050565b61146382610ca1565b67ffffffffffffffff81111561147c5761147b610dae565b5b611486825461117f565b6114918282856113cd565b600060209050601f8311600181146114c457600084156114b2578287015190505b6114bc858261143e565b865550611524565b601f1984166114d2866112ae565b60005b828110156114fa578489015182556001820191506020850194506020810190506114d5565b868310156115175784890151611513601f891682611420565b8355505b6001600288020188555050505b505050505050565b60006040820190506115416000830185610d3b565b61154e6020830184610d3b565b9392505050565b7f4e4f542077686974656c69737465642000000000000000000000000000000000600082015250565b600061158b601083610cac565b915061159682611555565b602082019050919050565b600060208201905081810360008301526115ba8161157e565b9050919050565b7f4e6f742072656769737465726564000000000000000000000000000000000000600082015250565b60006115f7600e83610cac565b9150611602826115c1565b602082019050919050565b60006020820190508181036000830152611626816115ea565b9050919050565b7f4e487b7100000000000000000000000000000000000000000000000000000000600052601160045260246000fd5b600061166782610d31565b915061167283610d31565b925082820190508082111561168a5761168961162d565b5b92915050565b7f56657374696e672074696d652072656d61696e73000000000000000000000000600082015250565b60006116c6601483610cac565b91506116d182611690565b602082019050919050565b600060208201905081810360008301526116f5816116b9565b9050919050565b600061170782610d31565b915061171283610d31565b925082820390508181111561172a5761172961162d565b5b92915050565b7f4e6f7420617661696c61626c6500000000000000000000000000000000000000600082015250565b6000611766600d83610cac565b915061177182611730565b602082019050919050565b6000602082019050818103600083015261179581611759565b905091905056fea2646970667358221220122bb1799b91f43c30b61d12042df4f52ea5fac2b1b4ee1461bac3c8012e3ab864736f6c63430008180033",
  "linkReferences": {},
  "deployedLinkReferences": {}
}